{
  "_format": "hh-sol-artifact-1",
  "contractName": "CampaignFactory",
  "sourceName": "contracts/Campaign.sol",
  "abi": [
    {
      "inputs": [
        {
          "internalType": "uint256",
          "name": "minimum",
          "type": "uint256"
        },
        {
          "internalType": "string",
          "name": "name",
          "type": "string"
        }
      ],
      "name": "createCampaign",
      "outputs": [],
      "stateMutability": "nonpayable",
      "type": "function"
    },
    {
      "inputs": [
        {
          "internalType": "uint256",
          "name": "",
          "type": "uint256"
        }
      ],
      "name": "deployedCampaigns",
      "outputs": [
        {
          "internalType": "contract Campaign",
          "name": "",
          "type": "address"
        }
      ],
      "stateMutability": "view",
      "type": "function"
    },
    {
      "inputs": [
        {
          "internalType": "address",
          "name": "contractAddress",
          "type": "address"
        }
      ],
      "name": "getContractBalance",
      "outputs": [
        {
          "internalType": "uint256",
          "name": "",
          "type": "uint256"
        }
      ],
      "stateMutability": "view",
      "type": "function"
    },
    {
      "inputs": [],
      "name": "getDeployedCampaigns",
      "outputs": [
        {
          "internalType": "contract Campaign[]",
          "name": "",
          "type": "address[]"
        }
      ],
      "stateMutability": "view",
      "type": "function"
    }
  ],
  "bytecode": "0x608060405234801561001057600080fd5b50611df2806100206000396000f3fe60806040523480156200001157600080fd5b5060043610620000525760003560e01c8063339d50a514620000575780634220d656146200008d57806343ab265f14620000ad5780634acb9d4f14620000e3575b600080fd5b6200007560048036038101906200006f9190620002fc565b62000105565b604051620000849190620003b9565b60405180910390f35b620000ab6004803603810190620000a5919062000538565b62000145565b005b620000cb6004803603810190620000c59190620005e3565b620001ee565b604051620000da919062000626565b60405180910390f35b620000ed6200020f565b604051620000fc919062000711565b60405180910390f35b600081815481106200011657600080fd5b906000526020600020016000915054906101000a900473ffffffffffffffffffffffffffffffffffffffff1681565b600082338360405162000158906200029f565b6200016693929190620007cf565b604051809103906000f08015801562000183573d6000803e3d6000fd5b5090506000819080600181540180825580915050600190039060005260206000200160009091909190916101000a81548173ffffffffffffffffffffffffffffffffffffffff021916908373ffffffffffffffffffffffffffffffffffffffff160217905550505050565b60008173ffffffffffffffffffffffffffffffffffffffff16319050919050565b606060008054806020026020016040519081016040528092919081815260200182805480156200029557602002820191906000526020600020905b8160009054906101000a900473ffffffffffffffffffffffffffffffffffffffff1673ffffffffffffffffffffffffffffffffffffffff16815260200190600101908083116200024a575b5050505050905090565b6115a9806200081483390190565b6000604051905090565b600080fd5b600080fd5b6000819050919050565b620002d681620002c1565b8114620002e257600080fd5b50565b600081359050620002f681620002cb565b92915050565b600060208284031215620003155762000314620002b7565b5b60006200032584828501620002e5565b91505092915050565b600073ffffffffffffffffffffffffffffffffffffffff82169050919050565b6000819050919050565b600062000379620003736200036d846200032e565b6200034e565b6200032e565b9050919050565b60006200038d8262000358565b9050919050565b6000620003a18262000380565b9050919050565b620003b38162000394565b82525050565b6000602082019050620003d06000830184620003a8565b92915050565b600080fd5b600080fd5b6000601f19601f8301169050919050565b7f4e487b7100000000000000000000000000000000000000000000000000000000600052604160045260246000fd5b6200042b82620003e0565b810181811067ffffffffffffffff821117156200044d576200044c620003f1565b5b80604052505050565b600062000462620002ad565b905062000470828262000420565b919050565b600067ffffffffffffffff821115620004935762000492620003f1565b5b6200049e82620003e0565b9050602081019050919050565b82818337600083830152505050565b6000620004d1620004cb8462000475565b62000456565b905082815260208101848484011115620004f057620004ef620003db565b5b620004fd848285620004ab565b509392505050565b600082601f8301126200051d576200051c620003d6565b5b81356200052f848260208601620004ba565b91505092915050565b60008060408385031215620005525762000551620002b7565b5b60006200056285828601620002e5565b925050602083013567ffffffffffffffff811115620005865762000585620002bc565b5b620005948582860162000505565b9150509250929050565b6000620005ab826200032e565b9050919050565b620005bd816200059e565b8114620005c957600080fd5b50565b600081359050620005dd81620005b2565b92915050565b600060208284031215620005fc57620005fb620002b7565b5b60006200060c84828501620005cc565b91505092915050565b6200062081620002c1565b82525050565b60006020820190506200063d600083018462000615565b92915050565b600081519050919050565b600082825260208201905092915050565b6000819050602082019050919050565b6200067a8162000394565b82525050565b60006200068e83836200066f565b60208301905092915050565b6000602082019050919050565b6000620006b48262000643565b620006c081856200064e565b9350620006cd836200065f565b8060005b8381101562000704578151620006e8888262000680565b9750620006f5836200069a565b925050600181019050620006d1565b5085935050505092915050565b600060208201905081810360008301526200072d8184620006a7565b905092915050565b62000740816200059e565b82525050565b600081519050919050565b600082825260208201905092915050565b60005b838110156200078257808201518184015260208101905062000765565b60008484015250505050565b60006200079b8262000746565b620007a7818562000751565b9350620007b981856020860162000762565b620007c481620003e0565b840191505092915050565b6000606082019050620007e6600083018662000615565b620007f5602083018562000735565b81810360408301526200080981846200078e565b905094935050505056fe60806040523480156200001157600080fd5b50604051620015a9380380620015a98339818101604052810190620000379190620002cd565b8260028190555081600160006101000a81548173ffffffffffffffffffffffffffffffffffffffff021916908373ffffffffffffffffffffffffffffffffffffffff160217905550806005908162000090919062000589565b5050505062000670565b6000604051905090565b600080fd5b600080fd5b6000819050919050565b620000c381620000ae565b8114620000cf57600080fd5b50565b600081519050620000e381620000b8565b92915050565b600073ffffffffffffffffffffffffffffffffffffffff82169050919050565b60006200011682620000e9565b9050919050565b620001288162000109565b81146200013457600080fd5b50565b60008151905062000148816200011d565b92915050565b600080fd5b600080fd5b6000601f19601f8301169050919050565b7f4e487b7100000000000000000000000000000000000000000000000000000000600052604160045260246000fd5b620001a38262000158565b810181811067ffffffffffffffff82111715620001c557620001c462000169565b5b80604052505050565b6000620001da6200009a565b9050620001e8828262000198565b919050565b600067ffffffffffffffff8211156200020b576200020a62000169565b5b620002168262000158565b9050602081019050919050565b60005b838110156200024357808201518184015260208101905062000226565b60008484015250505050565b6000620002666200026084620001ed565b620001ce565b90508281526020810184848401111562000285576200028462000153565b5b6200029284828562000223565b509392505050565b600082601f830112620002b257620002b16200014e565b5b8151620002c48482602086016200024f565b91505092915050565b600080600060608486031215620002e957620002e8620000a4565b5b6000620002f986828701620000d2565b93505060206200030c8682870162000137565b925050604084015167ffffffffffffffff81111562000330576200032f620000a9565b5b6200033e868287016200029a565b9150509250925092565b600081519050919050565b7f4e487b7100000000000000000000000000000000000000000000000000000000600052602260045260246000fd5b600060028204905060018216806200039b57607f821691505b602082108103620003b157620003b062000353565b5b50919050565b60008190508160005260206000209050919050565b60006020601f8301049050919050565b600082821b905092915050565b6000600883026200041b7fffffffffffffffffffffffffffffffffffffffffffffffffffffffffffffffff82620003dc565b620004278683620003dc565b95508019841693508086168417925050509392505050565b6000819050919050565b60006200046a620004646200045e84620000ae565b6200043f565b620000ae565b9050919050565b6000819050919050565b620004868362000449565b6200049e620004958262000471565b848454620003e9565b825550505050565b600090565b620004b5620004a6565b620004c28184846200047b565b505050565b5b81811015620004ea57620004de600082620004ab565b600181019050620004c8565b5050565b601f82111562000539576200050381620003b7565b6200050e84620003cc565b810160208510156200051e578190505b620005366200052d85620003cc565b830182620004c7565b50505b505050565b600082821c905092915050565b60006200055e600019846008026200053e565b1980831691505092915050565b60006200057983836200054b565b9150826002028217905092915050565b620005948262000348565b67ffffffffffffffff811115620005b057620005af62000169565b5b620005bc825462000382565b620005c9828285620004ee565b600060209050601f831160018114620006015760008415620005ec578287015190505b620005f885826200056b565b86555062000668565b601f1984166200061186620003b7565b60005b828110156200063b5784890151825560018201915060208501945060208101905062000614565b868310156200065b578489015162000657601f8916826200054b565b8355505b6001600288020188555050505b505050505050565b610f2980620006806000396000f3fe6080604052600436106100915760003560e01c8063888f26b811610059578063888f26b8146101925780638a9cfd55146101bd578063937e09b1146101e6578063d7bb99ba14610211578063e9f146a31461021b57610091565b806303441006146100965780630724fda9146100bf57806321eff7fc146100ea578063481c6a751461012757806381d12c5814610152575b600080fd5b3480156100a257600080fd5b506100bd60048036038101906100b8919061075a565b610246565b005b3480156100cb57600080fd5b506100d4610371565b6040516100e19190610817565b60405180910390f35b3480156100f657600080fd5b50610111600480360381019061010c9190610897565b6103ff565b60405161011e91906108d3565b60405180910390f35b34801561013357600080fd5b5061013c610448565b60405161014991906108fd565b60405180910390f35b34801561015e57600080fd5b506101796004803603810190610174919061075a565b61046e565b6040516101899493929190610954565b60405180910390f35b34801561019e57600080fd5b506101a7610563565b6040516101b491906108d3565b60405180910390f35b3480156101c957600080fd5b506101e460048036038101906101df9190610a31565b61056b565b005b3480156101f257600080fd5b506101fb61066c565b60405161020891906108d3565b60405180910390f35b610219610672565b005b34801561022757600080fd5b50610230610714565b60405161023d91906108d3565b60405180910390f35b600160009054906101000a900473ffffffffffffffffffffffffffffffffffffffff1673ffffffffffffffffffffffffffffffffffffffff163373ffffffffffffffffffffffffffffffffffffffff16146102a057600080fd5b60008082815481106102b5576102b4610aa5565b5b906000526020600020906003020190508060020160149054906101000a900460ff16156102e157600080fd5b8060020160009054906101000a900473ffffffffffffffffffffffffffffffffffffffff1673ffffffffffffffffffffffffffffffffffffffff166108fc82600101549081150290604051600060405180830381858888f1935050505015801561034f573d6000803e3d6000fd5b5060018160020160146101000a81548160ff0219169083151502179055505050565b6005805461037e90610b03565b80601f01602080910402602001604051908101604052809291908181526020018280546103aa90610b03565b80156103f75780601f106103cc576101008083540402835291602001916103f7565b820191906000526020600020905b8154815290600101906020018083116103da57829003601f168201915b505050505081565b6000600460008373ffffffffffffffffffffffffffffffffffffffff1673ffffffffffffffffffffffffffffffffffffffff168152602001908152602001600020549050919050565b600160009054906101000a900473ffffffffffffffffffffffffffffffffffffffff1681565b6000818154811061047e57600080fd5b90600052602060002090600302016000915090508060000180546104a190610b03565b80601f01602080910402602001604051908101604052809291908181526020018280546104cd90610b03565b801561051a5780601f106104ef5761010080835404028352916020019161051a565b820191906000526020600020905b8154815290600101906020018083116104fd57829003601f168201915b5050505050908060010154908060020160009054906101000a900473ffffffffffffffffffffffffffffffffffffffff16908060020160149054906101000a900460ff16905084565b600047905090565b600160009054906101000a900473ffffffffffffffffffffffffffffffffffffffff1673ffffffffffffffffffffffffffffffffffffffff163373ffffffffffffffffffffffffffffffffffffffff16146105c557600080fd5b600080600181600181540180825580915050039060005260206000209060030201905084848260000191826105fb929190610d1a565b50828160010181905550818160020160006101000a81548173ffffffffffffffffffffffffffffffffffffffff021916908373ffffffffffffffffffffffffffffffffffffffff16021790555060008160020160146101000a81548160ff0219169083151502179055505050505050565b60025481565b60025434116106b6576040517f08c379a00000000000000000000000000000000000000000000000000000000081526004016106ad90610e5c565b60405180910390fd5b600360008154809291906106c990610eab565b919050555034600460003373ffffffffffffffffffffffffffffffffffffffff1673ffffffffffffffffffffffffffffffffffffffff16815260200190815260200160002081905550565b60035481565b600080fd5b600080fd5b6000819050919050565b61073781610724565b811461074257600080fd5b50565b6000813590506107548161072e565b92915050565b6000602082840312156107705761076f61071a565b5b600061077e84828501610745565b91505092915050565b600081519050919050565b600082825260208201905092915050565b60005b838110156107c15780820151818401526020810190506107a6565b60008484015250505050565b6000601f19601f8301169050919050565b60006107e982610787565b6107f38185610792565b93506108038185602086016107a3565b61080c816107cd565b840191505092915050565b6000602082019050818103600083015261083181846107de565b905092915050565b600073ffffffffffffffffffffffffffffffffffffffff82169050919050565b600061086482610839565b9050919050565b61087481610859565b811461087f57600080fd5b50565b6000813590506108918161086b565b92915050565b6000602082840312156108ad576108ac61071a565b5b60006108bb84828501610882565b91505092915050565b6108cd81610724565b82525050565b60006020820190506108e860008301846108c4565b92915050565b6108f781610859565b82525050565b600060208201905061091260008301846108ee565b92915050565b600061092382610839565b9050919050565b61093381610918565b82525050565b60008115159050919050565b61094e81610939565b82525050565b6000608082019050818103600083015261096e81876107de565b905061097d60208301866108c4565b61098a604083018561092a565b6109976060830184610945565b95945050505050565b600080fd5b600080fd5b600080fd5b60008083601f8401126109c5576109c46109a0565b5b8235905067ffffffffffffffff8111156109e2576109e16109a5565b5b6020830191508360018202830111156109fe576109fd6109aa565b5b9250929050565b610a0e81610918565b8114610a1957600080fd5b50565b600081359050610a2b81610a05565b92915050565b60008060008060608587031215610a4b57610a4a61071a565b5b600085013567ffffffffffffffff811115610a6957610a6861071f565b5b610a75878288016109af565b94509450506020610a8887828801610745565b9250506040610a9987828801610a1c565b91505092959194509250565b7f4e487b7100000000000000000000000000000000000000000000000000000000600052603260045260246000fd5b7f4e487b7100000000000000000000000000000000000000000000000000000000600052602260045260246000fd5b60006002820490506001821680610b1b57607f821691505b602082108103610b2e57610b2d610ad4565b5b50919050565b600082905092915050565b7f4e487b7100000000000000000000000000000000000000000000000000000000600052604160045260246000fd5b60008190508160005260206000209050919050565b60006020601f8301049050919050565b600082821b905092915050565b600060088302610bd07fffffffffffffffffffffffffffffffffffffffffffffffffffffffffffffffff82610b93565b610bda8683610b93565b95508019841693508086168417925050509392505050565b6000819050919050565b6000610c17610c12610c0d84610724565b610bf2565b610724565b9050919050565b6000819050919050565b610c3183610bfc565b610c45610c3d82610c1e565b848454610ba0565b825550505050565b600090565b610c5a610c4d565b610c65818484610c28565b505050565b5b81811015610c8957610c7e600082610c52565b600181019050610c6b565b5050565b601f821115610cce57610c9f81610b6e565b610ca884610b83565b81016020851015610cb7578190505b610ccb610cc385610b83565b830182610c6a565b50505b505050565b600082821c905092915050565b6000610cf160001984600802610cd3565b1980831691505092915050565b6000610d0a8383610ce0565b9150826002028217905092915050565b610d248383610b34565b67ffffffffffffffff811115610d3d57610d3c610b3f565b5b610d478254610b03565b610d52828285610c8d565b6000601f831160018114610d815760008415610d6f578287013590505b610d798582610cfe565b865550610de1565b601f198416610d8f86610b6e565b60005b82811015610db757848901358255600182019150602085019450602081019050610d92565b86831015610dd45784890135610dd0601f891682610ce0565b8355505b6001600288020188555050505b50505050505050565b7f74686520616d6f756e742073686f756c6420626520677265617465722074686160008201527f6e20746865206d696e696d756d20636f6e747269627574696f6e000000000000602082015250565b6000610e46603a83610792565b9150610e5182610dea565b604082019050919050565b60006020820190508181036000830152610e7581610e39565b9050919050565b7f4e487b7100000000000000000000000000000000000000000000000000000000600052601160045260246000fd5b6000610eb682610724565b91507fffffffffffffffffffffffffffffffffffffffffffffffffffffffffffffffff8203610ee857610ee7610e7c565b5b60018201905091905056fea264697066735822122018a76db500eb42c75d6c7fcfa0d6f74f2e6d31c83c5a68c88eb29f00d681d16a64736f6c63430008110033a264697066735822122030e3b11a5ac483a4e0ccc93863de2044c6c1f36e5d5cc87922bd25344021e7eb64736f6c63430008110033",
  "linkReferences": {},
  "deployedLinkReferences": {}
}