{
  "_format": "hh-sol-artifact-1",
  "contractName": "Campaign",
  "sourceName": "contracts/Campaign.sol",
  "abi": [
    {
      "inputs": [
        {
          "internalType": "uint256",
          "name": "minimum",
          "type": "uint256"
        },
        {
          "internalType": "address",
          "name": "user",
          "type": "address"
        },
        {
          "internalType": "string",
          "name": "name",
          "type": "string"
        }
      ],
      "stateMutability": "nonpayable",
      "type": "constructor"
    },
    {
      "anonymous": false,
      "inputs": [
        {
          "indexed": false,
          "internalType": "address",
          "name": "from",
          "type": "address"
        },
        {
          "indexed": false,
          "internalType": "uint256",
          "name": "amount",
          "type": "uint256"
        },
        {
          "indexed": false,
          "internalType": "uint256",
          "name": "timestamp",
          "type": "uint256"
        },
        {
          "indexed": false,
          "internalType": "uint256",
          "name": "totalContributors",
          "type": "uint256"
        }
      ],
      "name": "ContributeEvent",
      "type": "event"
    },
    {
      "anonymous": false,
      "inputs": [
        {
          "indexed": false,
          "internalType": "uint256",
          "name": "index",
          "type": "uint256"
        },
        {
          "indexed": false,
          "internalType": "address",
          "name": "recipient",
          "type": "address"
        },
        {
          "indexed": false,
          "internalType": "uint256",
          "name": "amount",
          "type": "uint256"
        },
        {
          "indexed": false,
          "internalType": "uint256",
          "name": "closed_at",
          "type": "uint256"
        }
      ],
      "name": "FinalizeRequestEvent",
      "type": "event"
    },
    {
      "inputs": [],
      "name": "campaignName",
      "outputs": [
        {
          "internalType": "string",
          "name": "",
          "type": "string"
        }
      ],
      "stateMutability": "view",
      "type": "function"
    },
    {
      "inputs": [],
      "name": "contribute",
      "outputs": [],
      "stateMutability": "payable",
      "type": "function"
    },
    {
      "inputs": [],
      "name": "contributersCount",
      "outputs": [
        {
          "internalType": "uint256",
          "name": "",
          "type": "uint256"
        }
      ],
      "stateMutability": "view",
      "type": "function"
    },
    {
      "inputs": [
        {
          "internalType": "string",
          "name": "description",
          "type": "string"
        },
        {
          "internalType": "uint256",
          "name": "value",
          "type": "uint256"
        },
        {
          "internalType": "address payable",
          "name": "recipient",
          "type": "address"
        }
      ],
      "name": "createRequest",
      "outputs": [],
      "stateMutability": "nonpayable",
      "type": "function"
    },
    {
      "inputs": [],
      "name": "currentContractBalance",
      "outputs": [
        {
          "internalType": "uint256",
          "name": "",
          "type": "uint256"
        }
      ],
      "stateMutability": "view",
      "type": "function"
    },
    {
      "inputs": [
        {
          "internalType": "uint256",
          "name": "index",
          "type": "uint256"
        }
      ],
      "name": "finalizeRequest",
      "outputs": [],
      "stateMutability": "nonpayable",
      "type": "function"
    },
    {
      "inputs": [
        {
          "internalType": "address",
          "name": "contributer",
          "type": "address"
        }
      ],
      "name": "getContribution",
      "outputs": [
        {
          "internalType": "uint256",
          "name": "",
          "type": "uint256"
        }
      ],
      "stateMutability": "view",
      "type": "function"
    },
    {
      "inputs": [],
      "name": "getSummary",
      "outputs": [
        {
          "internalType": "uint256",
          "name": "",
          "type": "uint256"
        },
        {
          "internalType": "uint256",
          "name": "",
          "type": "uint256"
        },
        {
          "internalType": "uint256",
          "name": "",
          "type": "uint256"
        },
        {
          "internalType": "address",
          "name": "",
          "type": "address"
        },
        {
          "internalType": "string",
          "name": "",
          "type": "string"
        },
        {
          "internalType": "bool",
          "name": "",
          "type": "bool"
        },
        {
          "internalType": "uint256",
          "name": "",
          "type": "uint256"
        },
        {
          "internalType": "uint256",
          "name": "",
          "type": "uint256"
        },
        {
          "internalType": "uint256",
          "name": "",
          "type": "uint256"
        }
      ],
      "stateMutability": "view",
      "type": "function"
    },
    {
      "inputs": [],
      "name": "manager",
      "outputs": [
        {
          "internalType": "address",
          "name": "",
          "type": "address"
        }
      ],
      "stateMutability": "view",
      "type": "function"
    },
    {
      "inputs": [],
      "name": "minimumContribution",
      "outputs": [
        {
          "internalType": "uint256",
          "name": "",
          "type": "uint256"
        }
      ],
      "stateMutability": "view",
      "type": "function"
    },
    {
      "inputs": [
        {
          "internalType": "uint256",
          "name": "",
          "type": "uint256"
        }
      ],
      "name": "requests",
      "outputs": [
        {
          "internalType": "string",
          "name": "description",
          "type": "string"
        },
        {
          "internalType": "uint256",
          "name": "value",
          "type": "uint256"
        },
        {
          "internalType": "address payable",
          "name": "recipient",
          "type": "address"
        },
        {
          "internalType": "bool",
          "name": "completed",
          "type": "bool"
        }
      ],
      "stateMutability": "view",
      "type": "function"
    }
  ],
  "bytecode": "0x60806040523480156200001157600080fd5b5060405162001949380380620019498339818101604052810190620000379190620002ef565b8260028190555081600160006101000a81548173ffffffffffffffffffffffffffffffffffffffff021916908373ffffffffffffffffffffffffffffffffffffffff1602179055508060059081620000909190620005ab565b506000600960006101000a81548160ff0219169083151502179055504260078190555050505062000692565b6000604051905090565b600080fd5b600080fd5b6000819050919050565b620000e581620000d0565b8114620000f157600080fd5b50565b6000815190506200010581620000da565b92915050565b600073ffffffffffffffffffffffffffffffffffffffff82169050919050565b600062000138826200010b565b9050919050565b6200014a816200012b565b81146200015657600080fd5b50565b6000815190506200016a816200013f565b92915050565b600080fd5b600080fd5b6000601f19601f8301169050919050565b7f4e487b7100000000000000000000000000000000000000000000000000000000600052604160045260246000fd5b620001c5826200017a565b810181811067ffffffffffffffff82111715620001e757620001e66200018b565b5b80604052505050565b6000620001fc620000bc565b90506200020a8282620001ba565b919050565b600067ffffffffffffffff8211156200022d576200022c6200018b565b5b62000238826200017a565b9050602081019050919050565b60005b838110156200026557808201518184015260208101905062000248565b60008484015250505050565b60006200028862000282846200020f565b620001f0565b905082815260208101848484011115620002a757620002a662000175565b5b620002b484828562000245565b509392505050565b600082601f830112620002d457620002d362000170565b5b8151620002e684826020860162000271565b91505092915050565b6000806000606084860312156200030b576200030a620000c6565b5b60006200031b86828701620000f4565b93505060206200032e8682870162000159565b925050604084015167ffffffffffffffff811115620003525762000351620000cb565b5b6200036086828701620002bc565b9150509250925092565b600081519050919050565b7f4e487b7100000000000000000000000000000000000000000000000000000000600052602260045260246000fd5b60006002820490506001821680620003bd57607f821691505b602082108103620003d357620003d262000375565b5b50919050565b60008190508160005260206000209050919050565b60006020601f8301049050919050565b600082821b905092915050565b6000600883026200043d7fffffffffffffffffffffffffffffffffffffffffffffffffffffffffffffffff82620003fe565b620004498683620003fe565b95508019841693508086168417925050509392505050565b6000819050919050565b60006200048c620004866200048084620000d0565b62000461565b620000d0565b9050919050565b6000819050919050565b620004a8836200046b565b620004c0620004b78262000493565b8484546200040b565b825550505050565b600090565b620004d7620004c8565b620004e48184846200049d565b505050565b5b818110156200050c5762000500600082620004cd565b600181019050620004ea565b5050565b601f8211156200055b576200052581620003d9565b6200053084620003ee565b8101602085101562000540578190505b620005586200054f85620003ee565b830182620004e9565b50505b505050565b600082821c905092915050565b6000620005806000198460080262000560565b1980831691505092915050565b60006200059b83836200056d565b9150826002028217905092915050565b620005b6826200036a565b67ffffffffffffffff811115620005d257620005d16200018b565b5b620005de8254620003a4565b620005eb82828562000510565b600060209050601f8311600181146200062357600084156200060e578287015190505b6200061a85826200058d565b8655506200068a565b601f1984166200063386620003d9565b60005b828110156200065d5784890151825560018201915060208501945060208101905062000636565b868310156200067d578489015162000679601f8916826200056d565b8355505b6001600288020188555050505b505050505050565b6112a780620006a26000396000f3fe60806040526004361061009c5760003560e01c806381d12c581161006457806381d12c5814610190578063888f26b8146101d05780638a9cfd55146101fb578063937e09b114610224578063d7bb99ba1461024f578063e9f146a3146102595761009c565b806303441006146100a15780630724fda9146100ca57806321eff7fc146100f55780634051ddac14610132578063481c6a7514610165575b600080fd5b3480156100ad57600080fd5b506100c860048036038101906100c39190610965565b610284565b005b3480156100d657600080fd5b506100df610438565b6040516100ec9190610a22565b60405180910390f35b34801561010157600080fd5b5061011c60048036038101906101179190610aa2565b6104c6565b6040516101299190610ade565b60405180910390f35b34801561013e57600080fd5b5061014761050f565b60405161015c99989796959493929190610b23565b60405180910390f35b34801561017157600080fd5b5061017a61060b565b6040516101879190610bb7565b60405180910390f35b34801561019c57600080fd5b506101b760048036038101906101b29190610965565b610631565b6040516101c79493929190610bf3565b60405180910390f35b3480156101dc57600080fd5b506101e5610726565b6040516101f29190610ade565b60405180910390f35b34801561020757600080fd5b50610222600480360381019061021d9190610cd0565b61072e565b005b34801561023057600080fd5b5061023961082f565b6040516102469190610ade565b60405180910390f35b610257610835565b005b34801561026557600080fd5b5061026e61091f565b60405161027b9190610ade565b60405180910390f35b600160009054906101000a900473ffffffffffffffffffffffffffffffffffffffff1673ffffffffffffffffffffffffffffffffffffffff163373ffffffffffffffffffffffffffffffffffffffff16146102de57600080fd5b60008082815481106102f3576102f2610d44565b5b906000526020600020906003020190508060020160149054906101000a900460ff161561031f57600080fd5b8060020160009054906101000a900473ffffffffffffffffffffffffffffffffffffffff1673ffffffffffffffffffffffffffffffffffffffff166108fc82600101549081150290604051600060405180830381858888f1935050505015801561038d573d6000803e3d6000fd5b5060018160020160146101000a81548160ff0219169083151502179055506001600960006101000a81548160ff021916908315150217905550426008819055507fc86be4fd8aed1ebcea9831009684331de6f1f6000117bd54b0496291aeff32dd828260020160009054906101000a900473ffffffffffffffffffffffffffffffffffffffff16836001015460085460405161042c9493929190610dd2565b60405180910390a15050565b6005805461044590610e46565b80601f016020809104026020016040519081016040528092919081815260200182805461047190610e46565b80156104be5780601f10610493576101008083540402835291602001916104be565b820191906000526020600020905b8154815290600101906020018083116104a157829003601f168201915b505050505081565b6000600460008373ffffffffffffffffffffffffffffffffffffffff1673ffffffffffffffffffffffffffffffffffffffff168152602001908152602001600020549050919050565b600080600080606060008060008060025447600354600160009054906101000a900473ffffffffffffffffffffffffffffffffffffffff166005600960009054906101000a900460ff1660075460065460085484805461056e90610e46565b80601f016020809104026020016040519081016040528092919081815260200182805461059a90610e46565b80156105e75780601f106105bc576101008083540402835291602001916105e7565b820191906000526020600020905b8154815290600101906020018083116105ca57829003601f168201915b50505050509450985098509850985098509850985098509850909192939495969798565b600160009054906101000a900473ffffffffffffffffffffffffffffffffffffffff1681565b6000818154811061064157600080fd5b906000526020600020906003020160009150905080600001805461066490610e46565b80601f016020809104026020016040519081016040528092919081815260200182805461069090610e46565b80156106dd5780601f106106b2576101008083540402835291602001916106dd565b820191906000526020600020905b8154815290600101906020018083116106c057829003601f168201915b5050505050908060010154908060020160009054906101000a900473ffffffffffffffffffffffffffffffffffffffff16908060020160149054906101000a900460ff16905084565b600047905090565b600160009054906101000a900473ffffffffffffffffffffffffffffffffffffffff1673ffffffffffffffffffffffffffffffffffffffff163373ffffffffffffffffffffffffffffffffffffffff161461078857600080fd5b600080600181600181540180825580915050039060005260206000209060030201905084848260000191826107be929190611053565b50828160010181905550818160020160006101000a81548173ffffffffffffffffffffffffffffffffffffffff021916908373ffffffffffffffffffffffffffffffffffffffff16021790555060008160020160146101000a81548160ff0219169083151502179055505050505050565b60025481565b6002543411610879576040517f08c379a000000000000000000000000000000000000000000000000000000000815260040161087090611195565b60405180910390fd5b6003600081548092919061088c906111e4565b919050555034600460003373ffffffffffffffffffffffffffffffffffffffff1673ffffffffffffffffffffffffffffffffffffffff16815260200190815260200160002081905550426006819055507f3cf0754ce7d9adeed37afcfdf8a11fc19ec08ddc84e98bac4d755eb17f1c02953334600654600354604051610915949392919061122c565b60405180910390a1565b60035481565b600080fd5b600080fd5b6000819050919050565b6109428161092f565b811461094d57600080fd5b50565b60008135905061095f81610939565b92915050565b60006020828403121561097b5761097a610925565b5b600061098984828501610950565b91505092915050565b600081519050919050565b600082825260208201905092915050565b60005b838110156109cc5780820151818401526020810190506109b1565b60008484015250505050565b6000601f19601f8301169050919050565b60006109f482610992565b6109fe818561099d565b9350610a0e8185602086016109ae565b610a17816109d8565b840191505092915050565b60006020820190508181036000830152610a3c81846109e9565b905092915050565b600073ffffffffffffffffffffffffffffffffffffffff82169050919050565b6000610a6f82610a44565b9050919050565b610a7f81610a64565b8114610a8a57600080fd5b50565b600081359050610a9c81610a76565b92915050565b600060208284031215610ab857610ab7610925565b5b6000610ac684828501610a8d565b91505092915050565b610ad88161092f565b82525050565b6000602082019050610af36000830184610acf565b92915050565b610b0281610a64565b82525050565b60008115159050919050565b610b1d81610b08565b82525050565b600061012082019050610b39600083018c610acf565b610b46602083018b610acf565b610b53604083018a610acf565b610b606060830189610af9565b8181036080830152610b7281886109e9565b9050610b8160a0830187610b14565b610b8e60c0830186610acf565b610b9b60e0830185610acf565b610ba9610100830184610acf565b9a9950505050505050505050565b6000602082019050610bcc6000830184610af9565b92915050565b6000610bdd82610a44565b9050919050565b610bed81610bd2565b82525050565b60006080820190508181036000830152610c0d81876109e9565b9050610c1c6020830186610acf565b610c296040830185610be4565b610c366060830184610b14565b95945050505050565b600080fd5b600080fd5b600080fd5b60008083601f840112610c6457610c63610c3f565b5b8235905067ffffffffffffffff811115610c8157610c80610c44565b5b602083019150836001820283011115610c9d57610c9c610c49565b5b9250929050565b610cad81610bd2565b8114610cb857600080fd5b50565b600081359050610cca81610ca4565b92915050565b60008060008060608587031215610cea57610ce9610925565b5b600085013567ffffffffffffffff811115610d0857610d0761092a565b5b610d1487828801610c4e565b94509450506020610d2787828801610950565b9250506040610d3887828801610cbb565b91505092959194509250565b7f4e487b7100000000000000000000000000000000000000000000000000000000600052603260045260246000fd5b6000819050919050565b6000610d98610d93610d8e84610a44565b610d73565b610a44565b9050919050565b6000610daa82610d7d565b9050919050565b6000610dbc82610d9f565b9050919050565b610dcc81610db1565b82525050565b6000608082019050610de76000830187610acf565b610df46020830186610dc3565b610e016040830185610acf565b610e0e6060830184610acf565b95945050505050565b7f4e487b7100000000000000000000000000000000000000000000000000000000600052602260045260246000fd5b60006002820490506001821680610e5e57607f821691505b602082108103610e7157610e70610e17565b5b50919050565b600082905092915050565b7f4e487b7100000000000000000000000000000000000000000000000000000000600052604160045260246000fd5b60008190508160005260206000209050919050565b60006020601f8301049050919050565b600082821b905092915050565b600060088302610f137fffffffffffffffffffffffffffffffffffffffffffffffffffffffffffffffff82610ed6565b610f1d8683610ed6565b95508019841693508086168417925050509392505050565b6000610f50610f4b610f468461092f565b610d73565b61092f565b9050919050565b6000819050919050565b610f6a83610f35565b610f7e610f7682610f57565b848454610ee3565b825550505050565b600090565b610f93610f86565b610f9e818484610f61565b505050565b5b81811015610fc257610fb7600082610f8b565b600181019050610fa4565b5050565b601f82111561100757610fd881610eb1565b610fe184610ec6565b81016020851015610ff0578190505b611004610ffc85610ec6565b830182610fa3565b50505b505050565b600082821c905092915050565b600061102a6000198460080261100c565b1980831691505092915050565b60006110438383611019565b9150826002028217905092915050565b61105d8383610e77565b67ffffffffffffffff81111561107657611075610e82565b5b6110808254610e46565b61108b828285610fc6565b6000601f8311600181146110ba57600084156110a8578287013590505b6110b28582611037565b86555061111a565b601f1984166110c886610eb1565b60005b828110156110f0578489013582556001820191506020850194506020810190506110cb565b8683101561110d5784890135611109601f891682611019565b8355505b6001600288020188555050505b50505050505050565b7f74686520616d6f756e742073686f756c6420626520677265617465722074686160008201527f6e20746865206d696e696d756d20636f6e747269627574696f6e000000000000602082015250565b600061117f603a8361099d565b915061118a82611123565b604082019050919050565b600060208201905081810360008301526111ae81611172565b9050919050565b7f4e487b7100000000000000000000000000000000000000000000000000000000600052601160045260246000fd5b60006111ef8261092f565b91507fffffffffffffffffffffffffffffffffffffffffffffffffffffffffffffffff8203611221576112206111b5565b5b600182019050919050565b60006080820190506112416000830187610af9565b61124e6020830186610acf565b61125b6040830185610acf565b6112686060830184610acf565b9594505050505056fea2646970667358221220fb33dfd3e67b4fa8df3e2bd7cfdbb3daea9ced20c96c6cea2572ba1d483ff3b264736f6c63430008110033",
  "linkReferences": {},
  "deployedLinkReferences": {}
}