{
  "_format": "hh-sol-artifact-1",
  "contractName": "Campaign",
  "sourceName": "contracts/Campaign.sol",
  "abi": [
    {
      "inputs": [
        {
          "internalType": "uint256",
          "name": "minimum",
          "type": "uint256"
        },
        {
          "internalType": "address",
          "name": "user",
          "type": "address"
        },
        {
          "internalType": "string",
          "name": "name",
          "type": "string"
        }
      ],
      "stateMutability": "nonpayable",
      "type": "constructor"
    },
    {
      "inputs": [],
      "name": "campaignName",
      "outputs": [
        {
          "internalType": "string",
          "name": "",
          "type": "string"
        }
      ],
      "stateMutability": "view",
      "type": "function"
    },
    {
      "inputs": [],
      "name": "contribute",
      "outputs": [],
      "stateMutability": "payable",
      "type": "function"
    },
    {
      "inputs": [],
      "name": "contributersCount",
      "outputs": [
        {
          "internalType": "uint256",
          "name": "",
          "type": "uint256"
        }
      ],
      "stateMutability": "view",
      "type": "function"
    },
    {
      "inputs": [
        {
          "internalType": "string",
          "name": "description",
          "type": "string"
        },
        {
          "internalType": "uint256",
          "name": "value",
          "type": "uint256"
        },
        {
          "internalType": "address payable",
          "name": "recipient",
          "type": "address"
        }
      ],
      "name": "createRequest",
      "outputs": [],
      "stateMutability": "nonpayable",
      "type": "function"
    },
    {
      "inputs": [],
      "name": "currentContractBalance",
      "outputs": [
        {
          "internalType": "uint256",
          "name": "",
          "type": "uint256"
        }
      ],
      "stateMutability": "view",
      "type": "function"
    },
    {
      "inputs": [
        {
          "internalType": "uint256",
          "name": "index",
          "type": "uint256"
        }
      ],
      "name": "finalizeRequest",
      "outputs": [],
      "stateMutability": "nonpayable",
      "type": "function"
    },
    {
      "inputs": [
        {
          "internalType": "address",
          "name": "contributer",
          "type": "address"
        }
      ],
      "name": "getContribution",
      "outputs": [
        {
          "internalType": "uint256",
          "name": "",
          "type": "uint256"
        }
      ],
      "stateMutability": "view",
      "type": "function"
    },
    {
      "inputs": [],
      "name": "getSummary",
      "outputs": [
        {
          "internalType": "uint256",
          "name": "",
          "type": "uint256"
        },
        {
          "internalType": "uint256",
          "name": "",
          "type": "uint256"
        },
        {
          "internalType": "uint256",
          "name": "",
          "type": "uint256"
        },
        {
          "internalType": "address",
          "name": "",
          "type": "address"
        },
        {
          "internalType": "string",
          "name": "",
          "type": "string"
        }
      ],
      "stateMutability": "view",
      "type": "function"
    },
    {
      "inputs": [],
      "name": "manager",
      "outputs": [
        {
          "internalType": "address",
          "name": "",
          "type": "address"
        }
      ],
      "stateMutability": "view",
      "type": "function"
    },
    {
      "inputs": [],
      "name": "minimumContribution",
      "outputs": [
        {
          "internalType": "uint256",
          "name": "",
          "type": "uint256"
        }
      ],
      "stateMutability": "view",
      "type": "function"
    },
    {
      "inputs": [
        {
          "internalType": "uint256",
          "name": "",
          "type": "uint256"
        }
      ],
      "name": "requests",
      "outputs": [
        {
          "internalType": "string",
          "name": "description",
          "type": "string"
        },
        {
          "internalType": "uint256",
          "name": "value",
          "type": "uint256"
        },
        {
          "internalType": "address payable",
          "name": "recipient",
          "type": "address"
        },
        {
          "internalType": "bool",
          "name": "completed",
          "type": "bool"
        }
      ],
      "stateMutability": "view",
      "type": "function"
    }
  ],
  "bytecode": "0x60806040523480156200001157600080fd5b506040516200170e3803806200170e8339818101604052810190620000379190620002cd565b8260028190555081600160006101000a81548173ffffffffffffffffffffffffffffffffffffffff021916908373ffffffffffffffffffffffffffffffffffffffff160217905550806005908162000090919062000589565b5050505062000670565b6000604051905090565b600080fd5b600080fd5b6000819050919050565b620000c381620000ae565b8114620000cf57600080fd5b50565b600081519050620000e381620000b8565b92915050565b600073ffffffffffffffffffffffffffffffffffffffff82169050919050565b60006200011682620000e9565b9050919050565b620001288162000109565b81146200013457600080fd5b50565b60008151905062000148816200011d565b92915050565b600080fd5b600080fd5b6000601f19601f8301169050919050565b7f4e487b7100000000000000000000000000000000000000000000000000000000600052604160045260246000fd5b620001a38262000158565b810181811067ffffffffffffffff82111715620001c557620001c462000169565b5b80604052505050565b6000620001da6200009a565b9050620001e8828262000198565b919050565b600067ffffffffffffffff8211156200020b576200020a62000169565b5b620002168262000158565b9050602081019050919050565b60005b838110156200024357808201518184015260208101905062000226565b60008484015250505050565b6000620002666200026084620001ed565b620001ce565b90508281526020810184848401111562000285576200028462000153565b5b6200029284828562000223565b509392505050565b600082601f830112620002b257620002b16200014e565b5b8151620002c48482602086016200024f565b91505092915050565b600080600060608486031215620002e957620002e8620000a4565b5b6000620002f986828701620000d2565b93505060206200030c8682870162000137565b925050604084015167ffffffffffffffff81111562000330576200032f620000a9565b5b6200033e868287016200029a565b9150509250925092565b600081519050919050565b7f4e487b7100000000000000000000000000000000000000000000000000000000600052602260045260246000fd5b600060028204905060018216806200039b57607f821691505b602082108103620003b157620003b062000353565b5b50919050565b60008190508160005260206000209050919050565b60006020601f8301049050919050565b600082821b905092915050565b6000600883026200041b7fffffffffffffffffffffffffffffffffffffffffffffffffffffffffffffffff82620003dc565b620004278683620003dc565b95508019841693508086168417925050509392505050565b6000819050919050565b60006200046a620004646200045e84620000ae565b6200043f565b620000ae565b9050919050565b6000819050919050565b620004868362000449565b6200049e620004958262000471565b848454620003e9565b825550505050565b600090565b620004b5620004a6565b620004c28184846200047b565b505050565b5b81811015620004ea57620004de600082620004ab565b600181019050620004c8565b5050565b601f82111562000539576200050381620003b7565b6200050e84620003cc565b810160208510156200051e578190505b620005366200052d85620003cc565b830182620004c7565b50505b505050565b600082821c905092915050565b60006200055e600019846008026200053e565b1980831691505092915050565b60006200057983836200054b565b9150826002028217905092915050565b620005948262000348565b67ffffffffffffffff811115620005b057620005af62000169565b5b620005bc825462000382565b620005c9828285620004ee565b600060209050601f831160018114620006015760008415620005ec578287015190505b620005f885826200056b565b86555062000668565b601f1984166200061186620003b7565b60005b828110156200063b5784890151825560018201915060208501945060208101905062000614565b868310156200065b578489015162000657601f8916826200054b565b8355505b6001600288020188555050505b505050505050565b61108e80620006806000396000f3fe60806040526004361061009c5760003560e01c806381d12c581161006457806381d12c581461018c578063888f26b8146101cc5780638a9cfd55146101f7578063937e09b114610220578063d7bb99ba1461024b578063e9f146a3146102555761009c565b806303441006146100a15780630724fda9146100ca57806321eff7fc146100f55780634051ddac14610132578063481c6a7514610161575b600080fd5b3480156100ad57600080fd5b506100c860048036038101906100c39190610865565b610280565b005b3480156100d657600080fd5b506100df6103ab565b6040516100ec9190610922565b60405180910390f35b34801561010157600080fd5b5061011c600480360381019061011791906109a2565b610439565b60405161012991906109de565b60405180910390f35b34801561013e57600080fd5b50610147610482565b604051610158959493929190610a08565b60405180910390f35b34801561016d57600080fd5b50610176610553565b6040516101839190610a62565b60405180910390f35b34801561019857600080fd5b506101b360048036038101906101ae9190610865565b610579565b6040516101c39493929190610ab9565b60405180910390f35b3480156101d857600080fd5b506101e161066e565b6040516101ee91906109de565b60405180910390f35b34801561020357600080fd5b5061021e60048036038101906102199190610b96565b610676565b005b34801561022c57600080fd5b50610235610777565b60405161024291906109de565b60405180910390f35b61025361077d565b005b34801561026157600080fd5b5061026a61081f565b60405161027791906109de565b60405180910390f35b600160009054906101000a900473ffffffffffffffffffffffffffffffffffffffff1673ffffffffffffffffffffffffffffffffffffffff163373ffffffffffffffffffffffffffffffffffffffff16146102da57600080fd5b60008082815481106102ef576102ee610c0a565b5b906000526020600020906003020190508060020160149054906101000a900460ff161561031b57600080fd5b8060020160009054906101000a900473ffffffffffffffffffffffffffffffffffffffff1673ffffffffffffffffffffffffffffffffffffffff166108fc82600101549081150290604051600060405180830381858888f19350505050158015610389573d6000803e3d6000fd5b5060018160020160146101000a81548160ff0219169083151502179055505050565b600580546103b890610c68565b80601f01602080910402602001604051908101604052809291908181526020018280546103e490610c68565b80156104315780601f1061040657610100808354040283529160200191610431565b820191906000526020600020905b81548152906001019060200180831161041457829003601f168201915b505050505081565b6000600460008373ffffffffffffffffffffffffffffffffffffffff1673ffffffffffffffffffffffffffffffffffffffff168152602001908152602001600020549050919050565b600080600080606060025447600354600160009054906101000a900473ffffffffffffffffffffffffffffffffffffffff1660058080546104c290610c68565b80601f01602080910402602001604051908101604052809291908181526020018280546104ee90610c68565b801561053b5780601f106105105761010080835404028352916020019161053b565b820191906000526020600020905b81548152906001019060200180831161051e57829003601f168201915b50505050509050945094509450945094509091929394565b600160009054906101000a900473ffffffffffffffffffffffffffffffffffffffff1681565b6000818154811061058957600080fd5b90600052602060002090600302016000915090508060000180546105ac90610c68565b80601f01602080910402602001604051908101604052809291908181526020018280546105d890610c68565b80156106255780601f106105fa57610100808354040283529160200191610625565b820191906000526020600020905b81548152906001019060200180831161060857829003601f168201915b5050505050908060010154908060020160009054906101000a900473ffffffffffffffffffffffffffffffffffffffff16908060020160149054906101000a900460ff16905084565b600047905090565b600160009054906101000a900473ffffffffffffffffffffffffffffffffffffffff1673ffffffffffffffffffffffffffffffffffffffff163373ffffffffffffffffffffffffffffffffffffffff16146106d057600080fd5b60008060018160018154018082558091505003906000526020600020906003020190508484826000019182610706929190610e7f565b50828160010181905550818160020160006101000a81548173ffffffffffffffffffffffffffffffffffffffff021916908373ffffffffffffffffffffffffffffffffffffffff16021790555060008160020160146101000a81548160ff0219169083151502179055505050505050565b60025481565b60025434116107c1576040517f08c379a00000000000000000000000000000000000000000000000000000000081526004016107b890610fc1565b60405180910390fd5b600360008154809291906107d490611010565b919050555034600460003373ffffffffffffffffffffffffffffffffffffffff1673ffffffffffffffffffffffffffffffffffffffff16815260200190815260200160002081905550565b60035481565b600080fd5b600080fd5b6000819050919050565b6108428161082f565b811461084d57600080fd5b50565b60008135905061085f81610839565b92915050565b60006020828403121561087b5761087a610825565b5b600061088984828501610850565b91505092915050565b600081519050919050565b600082825260208201905092915050565b60005b838110156108cc5780820151818401526020810190506108b1565b60008484015250505050565b6000601f19601f8301169050919050565b60006108f482610892565b6108fe818561089d565b935061090e8185602086016108ae565b610917816108d8565b840191505092915050565b6000602082019050818103600083015261093c81846108e9565b905092915050565b600073ffffffffffffffffffffffffffffffffffffffff82169050919050565b600061096f82610944565b9050919050565b61097f81610964565b811461098a57600080fd5b50565b60008135905061099c81610976565b92915050565b6000602082840312156109b8576109b7610825565b5b60006109c68482850161098d565b91505092915050565b6109d88161082f565b82525050565b60006020820190506109f360008301846109cf565b92915050565b610a0281610964565b82525050565b600060a082019050610a1d60008301886109cf565b610a2a60208301876109cf565b610a3760408301866109cf565b610a4460608301856109f9565b8181036080830152610a5681846108e9565b90509695505050505050565b6000602082019050610a7760008301846109f9565b92915050565b6000610a8882610944565b9050919050565b610a9881610a7d565b82525050565b60008115159050919050565b610ab381610a9e565b82525050565b60006080820190508181036000830152610ad381876108e9565b9050610ae260208301866109cf565b610aef6040830185610a8f565b610afc6060830184610aaa565b95945050505050565b600080fd5b600080fd5b600080fd5b60008083601f840112610b2a57610b29610b05565b5b8235905067ffffffffffffffff811115610b4757610b46610b0a565b5b602083019150836001820283011115610b6357610b62610b0f565b5b9250929050565b610b7381610a7d565b8114610b7e57600080fd5b50565b600081359050610b9081610b6a565b92915050565b60008060008060608587031215610bb057610baf610825565b5b600085013567ffffffffffffffff811115610bce57610bcd61082a565b5b610bda87828801610b14565b94509450506020610bed87828801610850565b9250506040610bfe87828801610b81565b91505092959194509250565b7f4e487b7100000000000000000000000000000000000000000000000000000000600052603260045260246000fd5b7f4e487b7100000000000000000000000000000000000000000000000000000000600052602260045260246000fd5b60006002820490506001821680610c8057607f821691505b602082108103610c9357610c92610c39565b5b50919050565b600082905092915050565b7f4e487b7100000000000000000000000000000000000000000000000000000000600052604160045260246000fd5b60008190508160005260206000209050919050565b60006020601f8301049050919050565b600082821b905092915050565b600060088302610d357fffffffffffffffffffffffffffffffffffffffffffffffffffffffffffffffff82610cf8565b610d3f8683610cf8565b95508019841693508086168417925050509392505050565b6000819050919050565b6000610d7c610d77610d728461082f565b610d57565b61082f565b9050919050565b6000819050919050565b610d9683610d61565b610daa610da282610d83565b848454610d05565b825550505050565b600090565b610dbf610db2565b610dca818484610d8d565b505050565b5b81811015610dee57610de3600082610db7565b600181019050610dd0565b5050565b601f821115610e3357610e0481610cd3565b610e0d84610ce8565b81016020851015610e1c578190505b610e30610e2885610ce8565b830182610dcf565b50505b505050565b600082821c905092915050565b6000610e5660001984600802610e38565b1980831691505092915050565b6000610e6f8383610e45565b9150826002028217905092915050565b610e898383610c99565b67ffffffffffffffff811115610ea257610ea1610ca4565b5b610eac8254610c68565b610eb7828285610df2565b6000601f831160018114610ee65760008415610ed4578287013590505b610ede8582610e63565b865550610f46565b601f198416610ef486610cd3565b60005b82811015610f1c57848901358255600182019150602085019450602081019050610ef7565b86831015610f395784890135610f35601f891682610e45565b8355505b6001600288020188555050505b50505050505050565b7f74686520616d6f756e742073686f756c6420626520677265617465722074686160008201527f6e20746865206d696e696d756d20636f6e747269627574696f6e000000000000602082015250565b6000610fab603a8361089d565b9150610fb682610f4f565b604082019050919050565b60006020820190508181036000830152610fda81610f9e565b9050919050565b7f4e487b7100000000000000000000000000000000000000000000000000000000600052601160045260246000fd5b600061101b8261082f565b91507fffffffffffffffffffffffffffffffffffffffffffffffffffffffffffffffff820361104d5761104c610fe1565b5b60018201905091905056fea2646970667358221220d4780144246f5f25480f66341b052294024885416de3be99ff9cf722adead13164736f6c63430008110033",
  "linkReferences": {},
  "deployedLinkReferences": {}
}